:020000040800F2
:10000000900F00209D010008D52800080D1500085C
:1000100079270008750F0008F53D00080000000072
:10002000000000000000000000000000DD2C0008BF
:10003000E91200080000000065290008012F0008EF
:10004000B7010008B7010008B7010008B7010008B0
:10005000B7010008B7010008B7010008B7010008A0
:10006000B7010008B7010008B7010008B701000890
:10007000B7010008B7010008B7010008B701000880
:10008000B7010008B7010008B7010008B701000870
:10009000B7010008B7010008B7010008B701000860
:1000A000B7010008B7010008B7010008B701000850
:1000B000B7010008B70100085D300008B70100086B
:1000C000B7010008B7010008B7010008B701000830
:1000D000B7010008C9390008B7010008513A000803
:1000E000B7010008B7010008B7010008B701000810
:1000F000B7010008B7010008B7010008B701000800
:10010000B7010008B7010008B7010008B7010008EF
:10011000B7010008F5370008B7010008B70100086B
:10012000B7010008B7010008B7010008B7010008CF
:10013000B7010008B7010008B7010008B7010008BF
:10014000B7010008B7010008B7010008B7010008AF
:10015000B7010008B7010008B7010008B70100089F
:10016000B7010008B7010008B7010008B70100088F
:10017000B7010008B7010008B7010008B70100087F
:10018000B7010008B7010008DFF80CD000F092FBBF
:100190000048004719450008900F00200648804796
:1001A00006480047FEE7FEE7FEE7FEE7FEE7FEE75C
:1001B000FEE7FEE7FEE7FEE7052F000889010008DD
:1001C000D2B201E000F8012B491EFBD27047002299
:1001D000F6E710B513460A4604461946FFF7F0FF46
:1001E000204610BD421C10F8011B0029FBD1801ACB
:1001F00070472DE9FE4F804681EA0300C00F0C4690
:10020000009021F0004123F00045B8EB0200A94125
:1002100005D24046214690461C460B46024623F036
:100220000040104347D0270DC7F30A00C3F30A511B
:100230000290401A019040286BDAC3F3130040F497
:10024000801B0098924620B10023D2EB030A63EB97
:100250000B0B01985946C0F14002504600F017FAC6
:1002600006460D4650465946019A00F02FFA10EB0B
:1002700008006141002487EA115284EAE7731A43B7
:1002800040D0009A62B3019A012A4FEA075215DC66
:10029000001B61EB02014FF0004202EA0752CDE978
:1002A0000042001C41F5801132462B4600F0B4FAA2
:1002B00003B0BDE8F08F40462146F9E7001B61EB33
:1002C0000201001C41F5801300185B412018A2F5C3
:1002D000001747EB030140EAD570B6196D4111E0F4
:1002E0006D084FEA360645EAC0754FEA0752001B13
:1002F00061EB0201001C41F5801149084FEA300012
:100300000019514132462B4603B0BDE8F04F00F0D2
:1003100074BA0098012240000023D0EB020263EB84
:10032000E073009821464FEAE074B8EB000061EBFF
:100330000401E9E783F000435BE781F0004158E7FF
:100340002DE9FE4F81EA030404F0004421F000414E
:1003500000944FF0000B23F0004350EA01045ED0FC
:1003600052EA03045BD0C3F30A54C1F30A552C4488
:10037000A4F2F3340194A0FB0254C1F3130141F43D
:100380008011C3F3130343F4801301FB024400FB09
:10039000034E840A970A44EA815447EA8357A4FB30
:1003A000076802958D0A05FB07854FEA932C04FB2D
:1003B0000C542705029D4FEA065847EA1637B5EB5D
:1003C00008056EEB070C870E920E47EA811742EA8A
:1003D0008312A7FB0201B6EB0B0164EB00042B0DAB
:1003E00043EA0C335E1844EB1C50DA465146E7FBF7
:1003F0000201C5F313044FEA0B3343EA14534FEAE7
:100400000432019C43EA0603A4F10C040294009C0C
:10041000CDE900B400F000FA03B0BDE8F08F002091
:100420000146F9E72DE9F04D81EA030404F0004BA1
:1004300021F0004514464FF0000A23F0004150EA35
:10044000050220D054EA01021DD0C5F30A57024626
:10045000C5F31303C1F31300C1F30A5640F480152A
:1004600043F48013A7EB0608101BD64608F2FD38AC
:1004700073EB050002D308F1010801E092185B411B
:10048000B8F1000F03DA00200146BDE8F08D00202E
:100490004FF48011064684460EE0171B73EB0507E8
:1004A00005D3121B63EB050306434CEA010C490814
:1004B0004FEA300092185B4150EA0107EDD152EA51
:1004C000030012D082EA040083EA0501084305D044
:1004D000101BAB4106D20122002306E000224FF0A0
:1004E000004302E06FF0010253101AEB06004CEBE0
:1004F000085110EB0A0041EB0B01BDE8F04D00F094
:100500007CB90EB5C10F80EAE0700844CA0700212B
:1005100040F233438DE80E000A460B4600F07CF9AA
:1005200003B000BD70B5C1F30A5201F000450024CC
:10053000C1F3130140F2FF3341F480119A4201DA12
:10054000002070BD40F233439A42A2F2334203DCF2
:10055000524200F0ABF800E090402C43F1D0404212
:1005600070BDC1F30A5210B5C1F3130140F2FF335D
:1005700041F480119A4201DA002010BD40F2334369
:100580009A42A2F2334203DC524200F08FF810BDCF
:10059000904010BD30B5041E71F1000404DB4FF033
:1005A0000044404264EB0101141E73F1000405DBBA
:1005B0001C464FF00043524263EB04038B4208BFDA
:1005C000824230BD30B5041E71F1000404DB4FF0EF
:1005D0000044404264EB0101141E73F1000405DB8A
:1005E0001C464FF00043524263EB0403994208BF9C
:1005F000904230BD01F0004330B421F0004150EA98
:10060000010206D00A0DA2F56072C1F31301002A9F
:1006100002DC30BC00207047440F44EAC104C10032
:10062000E01830BC00EBC25000F0B0B82DE9F05F2C
:100630000546002092469B46884606468146402451
:100640001BE0284641464746224600F02FF8534615
:100650005A46C01A914110D311461846224600F05E
:1006600016F82D1A67EB01084F462246012000219B
:1006700000F00DF817EB00094E41201EA4F1010413
:10068000DFDC484631462A464346BDE8F09F202A33
:1006900004DB203A00FA02F1002070479140C2F1D9
:1006A000200320FA03F3194390407047202A04DB0B
:1006B000203A21FA02F00021704721FA02F3D040DB
:1006C000C2F120029140084319467047202A06DBF8
:1006D000CB17203A41FA02F043EAE07306E041FA10
:1006E00002F3D040C2F120029140084319467047FE
:1006F0000FB4002300B589B00CA900910B996FF0DD
:100700000042CB601E4B06931E4B07930423CDE99A
:1007100001321D4A089202466B46002000F062F941
:1007200009B05DF814FB70B586B006464FF0FF3097
:100730000091CDE90101002015460C460490324697
:10074000694604A8FFF7D4FF02460498211825B192
:1007500008B1084600E020462860049800280DD023
:10076000002A02DD0098884208D0081B0094CDE9D9
:1007700001043246694604A8FFF7BAFF06B070BD0F
:100780001D0C00083B0C0008D90800080029A8BF70
:100790007047401C490008BF20F00100704710B4AA
:1007A000B0FA80FC00FA0CF050EA010404BF10BC5F
:1007B000704749B1CCF1200421FA04F411FA0CF18C
:1007C00018BF012121430843A3EB0C01CB1D4FEAC5
:1007D00000614FEA102042BF002010BC704700EBC0
:1007E000C35010440029A4BF10BC7047401C4900EE
:1007F00008BF20F0010010BC704710B5141E73F143
:10080000000408DA401C41F1000192185B411A43D0
:1008100001D120F0010010BD2DE9F04D92469B461C
:1008200011B1B1FA81F202E0B0FA80F220329046C2
:10083000FFF72DFF04460F4640EA0A0041EA0B018C
:1008400053465A46084313D0114653EA010019D0C3
:10085000C8F140025046FFF729FF05460E465046B4
:1008600059464246FFF713FF084305D0012004E034
:1008700020463946BDE8F08D0020054346EAE07683
:100880002C4337430A986305E40AA0EB08000022D2
:10089000FD0A44EA47540A3002D500200146E9E740
:1008A000010510196941DDE9084500196941BDE8F4
:1008B000F04DA2E7064C074D06E0E06840F001036A
:1008C00094E8070098471034AC42F6D3FFF760FC79
:1008D000107D0008307D0008C0B24FF4F05100F0E8
:1008E000BDB900002DE9FF4F087881B09946FF2877
:1008F00005D0491C2D2804D00024002308E0002343
:100900000BE00124F9E703EB830300EB4303491CED
:100910000878FF28F7D104B15B42002000901478DA
:1009200001462D2C01D02B2C04D1521C2D2C12D081
:100930000024009400251678FF2E0ED00A24A0FB78
:1009400004C801FB0481002700FB0711521C16EBB1
:100950000C006941EFE70124EBE7994450EA0102FA
:100960000ED00024AA4D2646DFF8A88200F08AF9AE
:1009700082468B46B9F1000009DAC9F100071BE095
:1009800001980021C0E9001105B0BDE8F08F0746CD
:1009900012E0F80707D022462B4630464146FFF7C3
:1009A000CFFC0646884622462B4610461946FFF7DE
:1009B000C7FC04460D467F10002FEAD1B9F1000FA5
:1009C000324643465046594602DAFFF72BFD01E016
:1009D000FFF7B6FC009A0AB181F00041019AC2E922
:1009E0000001D1E72DE9FF4F1F468DB0D7E9014641
:1009F0004FF0FF382E2045464FF000090B90B969A3
:100A00006D1C0E988847396A824688470028F6D1BF
:100A1000BAF1FF3F0AD024F4D064002E11DDBAF100
:100A20002B0F08D0BAF12D0F0BD102E0404611B0C8
:100A3000ABE744F48064B9696D1C0E988847824620
:100A4000761E6946600501D52D2000E02B208DF82B
:100A5000000001F1010B0DF1200809E0B9696D1CDE
:100A60000E98884782460F9844F40074761E0560FD
:100A7000002E02DDBAF1300FF0D00B998A453ED13D
:100A800044F0800406E00F99681CA9F1010944F4C0
:100A900000740860B9696D1C761E0E9888478246FE
:100AA0003028F0D02BE00B998A4505D1200603D4DD
:100AB00044F08004761E18E0504603F035FA08B37F
:100AC0000DF11301761E44F400748B4508D2AAF18F
:100AD00030000BF8010B200607D5A9F1010003E057
:100AE000200602D409F101008146A00502D50F9924
:100AF000681C0860B9696D1C0E9888478246002EF4
:100B0000D1DC53E0002E51DDBAF1650F02D0BAF10D
:100B1000450F4BD1A00549D5B9696D1C24F440742B
:100B2000761E0E9888478246002E0CDD2B2804D0B6
:100B3000BAF12D0F07D144F48074B9696D1C0E9879
:100B400088478246761EE00501D52D2100E02B2145
:100B500008F8011BCDF82C8021E00DF12901761E4B
:100B600044F4007488450CD2AAF1300010F0FF0064
:100B700088F8000002D10B99884509D908F10108CD
:100B800006E0E00501D5244801E042F20F708146FD
:100B9000B9696D1C0E98884782460F980560002E33
:100BA00004DD504603F0C0F90028D6D1F9690E984B
:100BB0008847FF208BF8000088F80000002006908E
:100BC00007904B466A4608A906A8FFF78BFEA005CA
:100BD00002D46FF001002AE714F0240F0AD0E007D6
:100BE00014D1DDE906123868031D3B600068C0E9D6
:100BF00000120BE0DDE90601FFF7FCFC0146E0070F
:100C000004D13868021D3A600068016028460EE78A
:100C1000000024400000F03FF1D8FFFF426842B1DD
:100C2000016811F8013B23B1521EC0E900121846B9
:100C300070470121C160881E704742685AB1C3687D
:100C4000016843B983688B4205D0491E521CC0E934
:100C50000012002070474FF0FF3070477F2801D905
:100C6000002208E0064A02EB5002C007127800D1C9
:100C7000120902F00F020120904008407047000066
:100C80002C7B00080EB540F2334202920022CDE9DF
:100C900000221346FFF7C0FD03B000BD70B58C18ED
:100CA00010F8015B15F0070301D110F8013B2A1180
:100CB00006D110F8012B03E010F8016B01F8016B6D
:100CC0005B1EF9D12B0705D40023521E0DD401F869
:100CD000013BFAE710F8013BCB1A921C03E013F832
:100CE000015B01F8015B521EF9D5A142D8D3002067
:100CF00070BD000010B54FF4806001F029FEA820FF
:100D000003F04CFB4FF4E13004F05EFA4FF4E130B5
:100D100004F0F6F900F07AFF532144F61F6002F068
:100D200025F900F009F901F00BFB00F0F1FB01F0EF
:100D3000FFFE5B48416854208847642003F04CFB69
:100D40004FF6FF705749088000205749088003F08C
:100D500053F8002000F0B0FC4FF4E13004F08EF9BD
:100D60009FED524B9FED513B9FED522B9FED531B3F
:100D70009FED540B02F096F89FED4C4B9FED4B3BD3
:100D80009FED4C2B9FED4D1B9FED4E0B02F06EF82F
:100D90009FED4E4B9FED4F3B9FED462B9FED431B31
:100DA0009FED4E0B02F048F89FED484B9FED493BFD
:100DB0009FED402B9FED3D1B9FED480B02F064F82B
:100DC0009FED3A4B9FED393B9FED462B9FED471B27
:100DD0009FED480B02F066F89FED344B9FED333BDF
:100DE0009FED402B9FED451B9FED460B02F03EF81B
:100DF0009FED364B9FED373B9FED442B9FED451B01
:100E00009FED460B02F018F89FED304B9FED313B04
:100E10009FED442B9FED251B9FED440B02F034F812
:100E20009FED2A4B9FED2B3B9FED222B9FED1F1B30
:100E30009FED2A0B02F000F89FED244B9FED253B20
:100E40009FED1C2B9FED191B9FED240B02F01CF84E
:100E5000AC20384948601F2008606420C8603420F6
:100E600088601D2048611F200861AB20C861642094
:100E7000886165204862672008621B20C86267207D
:100E80008862AB204863A92008636620C863AD2050
:100E900088631C204864AD200864012010BD000058
:100EA000B4010020F0000020F2000020000000004B
:100EB000000000007B14AE47E17A943F0000000080
:100EC00000407F40560E2DB29DEFC73F000000004E
:100ED000000018C000000000000018403333333316
:100EE00033332F402D431CEBE2363A3FDE02098AB2
:100EF0001F63D23F033E3F8C101EBD3F7B832F4CB0
:100F0000A60AD23F0AD7A3703D0AB73F61325530D7
:100F10002AA9433F000000000000494000000000F3
:100F200000002440F168E388B5F8F43ECDCCCCCC89
:100F3000CCCC2640400300201CB50121402001F00C
:100F400033FD8020009001208DF8040000208DF8F2
:100F5000060003208DF8050002208DF80700694681
:100F6000034800F05EFA8021014800F0C5FA1CBD7C
:100F70000018024000BFFEE72DE9F04104464FF0A3
:100F8000000800260027B4254C48007800287CD0B3
:100F90004FF400714A4800F0AFFA4848007800F07A
:100FA000010090B14548007880F001004349087085
:100FB000152606274348016821608188A180807931
:100FC000A071A8193844C5B25EE03C48007800F032
:100FD000020090B13948007880F00200374908706B
:100FE000252606273848016821608188A1808079FC
:100FF000A071A8193844C5B246E03048007800F026
:10100000040090B12D48007880F004002B4908704E
:10101000352606272D48016821608188A1808079C6
:10102000A071A8193844C5B22EE02448007800F019
:10103000080090B12148007880F008001F4908702E
:10104000452606272248016821608188A180807991
:10105000A071A8193844C5B216E01848007800F00D
:10106000100088B11548007880F01000134908700E
:101070006526082717480168216041686160007A89
:101080002072A8193844C5B200E015E04FF00008FE
:1010900007E014F808002844C5B208F1010000F088
:1010A000FF08B845F5DB14F80800A84202D000207C
:1010B000BDE8F0813046FBE70020F9E71E01002083
:1010C000000402401F010020260100202D01002005
:1010D00034010020C305002010B52DED068BB0EEC5
:1010E000408AF0EE608A9FED140BB0EE409AF0EE6D
:1010F000609A9FED110BB0EE40AAF0EE60AAB0EE40
:10110000480AF0EE680A03F085FAB0EE409AF0EE75
:10111000609AB0EE490AF0EE690A03F06BFCB0EE9B
:1011200040AAF0EE60AAB0EE4A0AF0EE6A0A01F0B8
:1011300025FBBDEC068B10BD000000000000000088
:1011400010B52DED068BB0EE408AF0EE608A9FED73
:10115000140BB0EE409AF0EE609A9FED110BB0EEDA
:1011600040AAF0EE60AAB0EE480AF0EE680A03F07A
:101170004FFBB0EE409AF0EE609AB0EE490AF0EE06
:10118000690A03F00FFDB0EE40AAF0EE60AAB0EEDF
:101190004A0AF0EE6A0A01F047FBBDEC068B10BD6F
:1011A000000000000000000001460A2900DC09B927
:1011B000002070472420214A10700B293CD2DFE820
:1011C00001F03B060B10151A1F24292F35000520AE
:1011D0001A4A50710620ECE70920184A50720A207A
:1011E000E7E70D20154A50730E20E2E71120134A5D
:1011F00050741220DDE71520104A50751620D8E7EC
:1012000019200E4A50761A20D3E71D200B4A50773A
:101210001E20CEE72120094A82F821002220C8E7BB
:101220002520064A82F825002620C2E72920034A05
:1012300082F829002A20BCE70020BAE7D104002068
:1012400011B52DED020B04460A2C00DC04B91EBDBD
:101250000B2C43D2DFE804F042060C12181E242A9D
:1012600030363C0001221F49684600F0CCF835E0DA
:1012700005221C49684600F0C6F82FE009221949EA
:10128000684600F0C0F829E00D221649684600F0D3
:10129000BAF823E011221349684600F0B4F81DE0C3
:1012A00015221049684600F0AEF817E019220D49E2
:1012B000684600F0A8F811E01D220A49684600F0CF
:1012C000A2F80BE021220749684600F09CF805E0EF
:1012D00025220449684600F096F800BF00BF00BF11
:1012E000B5E70000D10400207047000051B1820032
:1012F000A2F1C042126842F001038200A2F1C04292
:10130000136009E08200A2F1C0421268034B1A4048
:101310008300A3F1C0431A6070470000FEFF0F0076
:10132000D0E901121143C2681143026911434269B5
:10133000114382691143C2691143026A1143426A2F
:101340001143826A1143C26A1143026B114302685E
:101350009200A2F1C0421160816808290BD1016896
:101360008900A1F1C041096841F04002016889008B
:10137000A1F1C0410A60416B0968426B526841EAC1
:101380000211426B926841EA0221426B928941EA62
:101390000241426B128A41EA0251426B127D41EADC
:1013A0000261426B926911430268521C9200A2F1E1
:1013B000C0421160C16AB1F5804F1BD1816B0968D1
:1013C000826B526841EA0211826B926841EA022103
:1013D000826B128A41EA0251826B127D41EA0261FC
:1013E000826B9269114302689200A2F1C042C2F876
:1013F000041107E06FF0704201688900A1F1C0415B
:10140000C1F80421704730B503461C788C545D78D0
:10141000541C0D559D78941C0D55DD78D41C0D552C
:1014200030BDF0B50A4600210023002400BF3DE096
:10143000012505FA01F3156805EA03049C4234D13D
:1014400005684F000326BE40B543056015794E0080
:10145000B5400668354305601579012D02D0157930
:10146000022D16D185684F000326BE40B543856026
:1014700055794E00B540866835438560456801263C
:101480008E40B5434560456896798E40B6B2354387
:101490004560C5684F000326BE40B543C560D57999
:1014A0004E00B540C6683543C560491C1029BFD3FE
:1014B000F0BDF0B5002300244D07ED0E02FA05F350
:1014C000CE1000F1200555F826504E07F70E0F26D6
:1014D000BE40B543CF1000F1200646F82750CE108D
:1014E00000F1200555F8265045EA0304CE1000F11E
:1014F000200545F82640F0BD4183704701837047C1
:101500000148006870470000E800002000BFFEE7C7
:101510001CB50121202001F047FA4FF470700090B3
:1015200000208DF8040003208DF8050001208DF8BF
:10153000070069460148FFF774FF1CBD0014024014
:1015400070B504460023002654480078012818D1BD
:10155000082C15D2DFE804F00406080A0C0E10125D
:1015600006240DE007240BE0042409E0052407E02D
:10157000012405E0002403E0032401E0022400BF6D
:1015800000BF4748008849F2413188425ED1082CAB
:101590001CD2DFE804F00406090C0F12151800BF76
:1015A00014E043F0800311E043F040030EE043F009
:1015B000C0030BE043F0200308E043F0600305E0C4
:1015C00043F0A00302E043F0E00300BF00BF362673
:1015D00043F008031946304600F0AAFE03F020004D
:1015E00068B13048008830490988884207DA2D48B8
:1015F00005882D4800882B4908802B4805802B48FA
:1016000000882B4908800020891C08800880254814
:101610000088401EC0F30F20088022480078401E3A
:10162000C0B2088023480088891E08800020891CD9
:10163000088008801C480088401EC0F30F200880E6
:1016400019480078401EC0B2088026E0082C1CD241
:10165000DFE804F004070A0D15180F1243F03003F9
:1016600013E043F0100310E043F020030DE000BF4F
:101670000BE043F0180308E043F0080305E043F0F3
:10168000380302E043F0280300BF00BF032643F401
:1016900080531946304600F04BFE70BDF600002026
:1016A000F4000020F8000020FA000020FE000020D6
:1016B000FE1F006C0001002070B5044600250026C6
:1016C000094800880949098800FB01F600210846FD
:1016D00000F0E8FD00F022FE00BF02E004480480B4
:1016E0006D1CB542FAD370BDF8000020FA0000204E
:1016F0000020006C30B503460C461546194800889A
:1017000049F24131884212D11748008817490880B0
:101710001812891C0880D8B2088015480088891ED4
:1017200008802012891C0880E0B2088012E011486D
:101730000078012804D110480088401EC01A83B2E6
:1017400019460948008800F0F3FD21460848008842
:1017500000F0EEFD0948008804490880881C0580D7
:1017600030BD0000F4000020FE000020FE1F006CD1
:1017700000010020F6000020F8000020FC000020FE
:101780002DE9F84F81460E4617461C4600960C2C54
:1017900001D198460AE0102C01D1A04606E0182C91
:1017A00002D14FF0240801E0BDE8F88FA7F1200036
:1017B000C7B2002553E00C2C07D107EB47002A499C
:1017C00001EB800010F805A012E0102C05D127488D
:1017D00000EB071010F805A00AE0182C07D107EB62
:1017E000C700234901EB800010F805A000E0DBE70B
:1017F0004FF0000B2DE00AF0800030B11D48028848
:1018000031464846FFF776FF05E01B48028831461F
:101810004846FFF76FFF4FEA4A604FEA106A701CB4
:1018200086B216480088864200DBBDE70098301A71
:10183000A0420AD1009E09F101001FFA80F9104868
:101840000088814500DBAFE706E00BF1010000F006
:10185000FF0BBBF1080FCEDB00BF681CC5B24545CE
:10186000A9DB00BFA0E700006C630008E067000888
:10187000D06D0008F0000020F2000020FA000020E7
:10188000F80000202DE9FF4F81B0064691461F4623
:10189000DDE90E4A00200090002544E0781B401E40
:1018A000C1B20A2000F0E4FCB9FBF0F00A21B0FB61
:1018B000F1F201FB1208009820BB781EA84221DD3E
:1018C000B8F1000F1CD1BAF1000F0CD0A34604EB05
:1018D000DB71491001FB056188B223463022029971
:1018E000FFF74EFF0BE0A34604EBDB71491001FB51
:1018F000056188B2234620220299FFF741FF10E0DC
:1019000001200090A34604EBDB71491001FB056147
:1019100088B208F13001CAB223460299FFF730FFBE
:1019200000BF681CC5B2BD42B8DB05B0BDE8F08F92
:1019300010B504461CBB002024490870F02024493F
:1019400008804FF4A070234908802348008849F29A
:101950004131884209D12C20204908802A20204981
:1019600008802B201F4908802CE022201B4908807A
:1019700020201B49088021201A49088022E00120EC
:10198000124908704FF4A07011490880F0201149E5
:1019900008801148008849F24131884209D12C2041
:1019A0000E4908802A200E4908802B200D49088006
:1019B00008E02220094908802120094908802020C8
:1019C000084908800020FFF7BBFD10BDF60000208D
:1019D000F8000020FA000020F4000020FC000020A5
:1019E000FE0000200001002000B59FB001217820FA
:1019F00000F0DAFF0121084600F0E6FF4FF48060B6
:101A00001D9001208DF8780000208DF87A000220CA
:101A10008DF8790001208DF87B001DA97748FFF72C
:101A200000FD4CF233701D9002208DF878000020EC
:101A30008DF87A0003208DF8790001208DF87B0065
:101A40001DA96F48FFF7EDFC4FF680701D90022036
:101A50008DF8780000208DF87A0003208DF8790049
:101A600001208DF87B001DA96648FFF7DAFC0420F1
:101A70001D9002208DF8780000208DF87A00032058
:101A80008DF8790001208DF87B001DA95E48FFF7D5
:101A9000C8FC4FF480501D9002208DF87800002083
:101AA0008DF87A0003208DF8790001208DF87B00F5
:101AB0001DA95548FFF7B5FC0C2200215048FFF73F
:101AC000F8FC0C2201214E48FFF7F3FC0C22042104
:101AD0004B48FFF7EEFC0C2205214948FFF7E9FCD3
:101AE0000C2208214648FFF7E4FC0C220921444857
:101AF000FFF7DFFC0C220A214148FFF7DAFC0C2239
:101B00000E213F48FFF7D5FC0C220F213C48FFF780
:101B1000D0FC0C2207213B48FFF7CBFC0C2208210C
:101B20003848FFF7C6FC0C2209213648FFF7C1FCF4
:101B30000C220A213348FFF7BCFC0C220B21314850
:101B4000FFF7B7FC0C2211462E48FFF7B2FC0C221F
:101B50000D212C48FFF7ADFC0C220E212948FFF780
:101B6000A8FC0C220F212748FFF7A3FC0C2202211E
:101B70002548FFF79EFC0C2211462348FFF799FCED
:101B80000F200790002008903C20099000200A9028
:101B90000B900C900D9009200090002001900820DF
:101BA00002900020039004900590069006200E906D
:101BB00000200F901090102011900020129014908F
:101BC0001390159016904FF48050179000201890A5
:101BD0004FF48040199000201A9007A81B90CDF870
:101BE00070D00EA8FFF79CFB01210620FFF77EFBBB
:101BF000322002F0F1FB1FB000BD000000140240D3
:101C0000000C0240001002400018024008B50020FD
:101C10000090FFF7E9FE0121002000F089FB32204F
:101C200002F0DAFB002000F02FFBFE490880084696
:101C30000088FF280ADB084600884FF6FF718842BB
:101C400004D0F8480088B0F5134F1DD1D320F649D1
:101C50000880881C0088F3490880F348801C0088AD
:101C60000880F148801C00880880084600884FF6EC
:101C7000FF7101EA0020EB490880EB48801C0088D6
:101C800009880843E7490880E648008849F241315D
:101C900088421CD1E548006820F00F004FF0204139
:101CA000C1F81C010846D0F81C0120F47060C1F88E
:101CB0001C010846D0F81C0140F00300C1F81C01CB
:101CC0000846D0F81C0140F40070C1F81C01D5484A
:101CD000008849F2283188427ED141F28F01EC2000
:101CE00000F026FB41F23421EF2000F021FB4FF4FD
:101CF0008071012000F01CFB4FF4E061022000F035
:101D000017FB41F23001032000F012FB00210420F8
:101D100000F00EFB40F20221082000F009FB002138
:101D2000092000F005FB00210A2000F001FB012141
:101D30000C2000F0FDFA00210D2000F0F9FA00213E
:101D40000F2000F0F5FA0021102000F0F1FA072131
:101D5000112000F0EDFA0021122000F0E9FA002134
:101D6000132000F0E5FA0121072000F0E1FA32200B
:101D700002F032FB41F29041102000F0D9FA40F21B
:101D80002721112000F0D4FA322002F025FB8A210D
:101D9000122000F0CDFA322002F01EFB4FF4D05199
:101DA000132000F0C5FA0621292000F0C1FA0D2108
:101DB0002B2000F0BDFA322002F00EFB0021202083
:101DC00000F0B6FA0021212000F0B2FA322002F031
:101DD00003FB0021302000E074E000F0A9FA40F29B
:101DE0000461312000F0A4FA40F20531322000F005
:101DF0009FFA0021352000F09BFA40F60941362079
:101E000000F096FA4FF40171372000F091FA40F299
:101E10000131382000F08CFA40F20771392000F0CF
:101E200087FA00213C2000F083FA40F60A213D2089
:101E300000F07EFA322002F0CFFA0021502000F0AC
:101E400077FAEF21512000F073FA0021522000F0C0
:101E50006FFA40F23F11532000F06AFA4FF4274125
:101E6000602000F065FA0121612000F061FA002194
:101E70006A2000F05DFA0021802000F059FA00216C
:101E8000812000F055FA0021822000F051FA002153
:101E9000832000F04DFA0021842000F049FA00214F
:101EA000852000F045FA1021902000F041FA4FF40F
:101EB000C061922000F03CFA40F23311072000F09C
:101EC00037FAC4E15748008849F2253188427DD16C
:101ED00047F6F001E52000F02BFA4FF48071012065
:101EE00000F026FA4FF4E061022000F021FA41F2FE
:101EF0003001032000F01CFA0021042000F018FA41
:101F000040F20221082000F013FA0021092000F01D
:101F10000FFA00210A2000F00BFA00210C2000F03B
:101F200007FA00210D2000F003FA00210F2000F035
:101F3000FFF90021102000F0FBF90721112000F02B
:101F4000F7F90021122000F0F3F90021132000F02E
:101F5000EFF90021072000F0EBF941F29061102029
:101F600000F0E6F940F22721112000F0E1F99D216F
:101F7000122000F0DDF94FF4C851132000F0D8F919
:101F80002521292000F0D4F90D212B2000F0D0F9D3
:101F90000721302000F0CCF940F20331312000F06D
:101FA000C7F90321322000F0C3F940F206213520A1
:101FB00000F0BEF90821362000F0BAF940F20641DF
:101FC000372000F0B5F94FF4417100E05FE03820B0
:101FD00000F0AEF90721392000F0AAF940F20261C1
:101FE0003C2000F0A5F908213D2000F0A1F90021D6
:101FF000502000F09DF9EF21512000F099F90021C7
:10200000522000F095F940F23F11532000F090F972
:102010004FF42741602000F08BF90121612000F08E
:1020200087F905E0F4000020FE1F006C1C0100A0F1
:1020300000216A2000F07CF90021802000F078F96E
:102040000021812000F074F90021822000F070F955
:102050000021832000F06CF90021842000F068F951
:102060000021852000F064F91021902000F060F933
:102070004FF4C061922000F05BF940F23311072069
:1020800000F056F92221002000F052F9DFE07548F7
:10209000008849F241318842F8D1CF207249088046
:1020A0000020891C0880C120088030200880ED2095
:1020B000891E08806420891C088003200880122063
:1020C000088081200880E820891E08808520891CDE
:1020D0000880102008807A200880CB20891E088084
:1020E0003920891C08802C2008800020088034209A
:1020F000088002200880F720891E08802020891C83
:102100000880EA20891E08800020891C0880088039
:10211000C020891E08801B20891C0880C120891EC0
:1021200008800120891C0880C520891E0880302075
:10213000891C08800880C720891E0880B720891C58
:1021400008803620891E08804820891C08803A2093
:10215000891E08805520891C0880B120891E0880AE
:102160000020891C08801A200880B620891E08805B
:102170000A20891C0880A2200880F220891E08807D
:102180000020891C08802620891E08800120891CC7
:102190000880E020891E08800F20891C08802A20E2
:1021A000088028200880082008800E200880082049
:1021B000088054200880A9200880432008800A2035
:1021C00008800F2008800020088008800880088090
:1021D000E120891E08800020891C088015200880C5
:1021E000172008800720088011200880062008801A
:1021F0002B200880562008803C200880052008807D
:10220000102008800F2008803F20088008800F20C1
:1022100008802B20891E08800020891C08800880E7
:10222000012008803F2008802A20891E0880002085
:10223000891C088008800880EF2008801120891EF2
:102240000880782002F0C8F829200749088000207B
:10225000FFF76EFB0120054908604FF6FF70FFF79E
:102260002BFA08BDF4000020FE1F006CA882424239
:1022700010B50246012000E050430B1EA1F10104FD
:10228000E1B2F9D110BD000010B504460448048045
:10229000052002F0BDF80248801C008810BD000037
:1022A000FE1F006C10B503460C461648008849F224
:1022B0004131884212D1144800881449088018120C
:1022C000891C0880D8B2088011480088891E0880BF
:1022D0002012891C0880E0B2088012E00D480078C6
:1022E000012804D10C480088401EC01A83B2194648
:1022F0000548008800F01CF821460548008800F0D9
:1023000017F810BDF4000020FE000020FE1F006C36
:1023100000010020F6000020F8000020024800889C
:102320000249088070470000FC000020FE1F006C7E
:10233000024A1080921C118070470000FE1F006C42
:102340001CB50121402000F02FFB4FF460400090AD
:1023500001208DF8040000208DF8060003208DF880
:10236000050001208DF8070069460448FFF759F879
:102370004FF460410148FFF7C1F81CBD001802404E
:1023800010B52DED068B654890ED021BB0EE410AAD
:10239000F0EE610A624890ED001B53EC112B51ECFA
:1023A000100BFDF7C7FF5F4A03C25C4890ED020BBC
:1023B0005B4880ED000B5B4890ED022BB0EE420ACB
:1023C000F0EE620A90ED002BB0EE421AF0EE621AC7
:1023D00053EC102B51EC110BFDF70BFF41EC1A0BDA
:1023E000504890ED041BB0EE410AF0EE610A53EC48
:1023F000102B51EC1A0BFDF7FCFE41EC190B494870
:1024000090ED061BB0EE410AF0EE610A53EC102B82
:1024100051EC190BFDF7EDFE41EC180B9FED420B53
:1024200053EC102BFDF7FEFF414A03C201200BE0E5
:10243000411E3C4A02EBC10191ED000B114601EB3C
:10244000C00181ED000B401C0328F1DD334890ED05
:10245000001BB0EE410AF0EE610A364890ED001B19
:1024600053EC112B51EC100BFDF764FF324A03C201
:102470002A4890ED000B2F4880ED000B2E4890ED80
:10248000022BB0EE420AF0EE620A90ED002BB0EEA5
:10249000421AF0EE621A53EC102B51EC110BFDF7BF
:1024A000A8FE41EC1A0B244890ED041BB0EE410A43
:1024B000F0EE610A53EC102B51EC1A0BFDF799FE6C
:1024C00041EC190B1C4890ED061BB0EE410AF0EEF2
:1024D000610A53EC102B51EC190BFDF78AFE41EC0D
:1024E000180B9FED110B53EC102BFDF79BFF134ABC
:1024F00003C201200BE0411E0F4A02EBC10191ED26
:10250000000B114601EBC00181ED000B401C0328BC
:10251000F1DD00F02DF9BDEC068B10BDE0050020CB
:1025200008000020B0020020000000000000104061
:102530001800002010000020D00200202000002001
:102540001CB50C2378224FF487710F20FFF718F980
:102550000C233D224FF487711B20FFF711F91E4811
:1025600090ED001BB0EE410AF0EE610A51EC100B49
:10257000FDF7F7FF044600200C2106232246CDE993
:1025800000104FF487712720FFF77CF90C23792284
:102590004FF487715B20FFF7F3F80C233D224FF4D3
:1025A00087716720FFF7ECF80B4890ED021BB0EE47
:1025B000410AF0EE610A51EC100BFDF7D2FF044620
:1025C00000200C2106232246CDE900104FF487712C
:1025D0007220FFF757F91CBDE00500200448006891
:1025E00008B9012000E000200149086070470000A0
:1025F000B802434210B52DED028B564890ED121BE8
:10260000B0EE410AF0EE610A51EC100BFDF7F2FF5B
:1026100008EE100A0120B0EE480AFEF711FE4D4800
:1026200090ED261BB0EE410AF0EE610A51EC100B62
:10263000FDF7E0FF08EE100A0220B0EE480AFEF7B0
:10264000FFFD444890ED061BB0EE410AF0EE610A32
:1026500051EC100BFDF7CEFF08EE100A0320B0EE90
:10266000480AFEF7EDFD3B4890ED2E1BB0EE410A07
:10267000F0EE610A51EC100BFDF7BCFF08EE100AFA
:102680000420B0EE480AFEF7DBFD324890ED121B45
:10269000B0EE410AF0EE610A51EC100BFDF7AAFF13
:1026A00008EE100A0520B0EE480AFEF7C9FD2948D9
:1026B00090ED4E1BB0EE410AF0EE610A51EC100BAA
:1026C000FDF798FF08EE100A0620B0EE480AFEF764
:1026D000B7FD214890ED000B51EC100BFDF78AFF80
:1026E00008EE100A0720B0EE480AFEF7A9FD1B48C5
:1026F00090ED000B51EC100BFDF77CFF08EE100A7B
:102700000820B0EE480AFEF79BFD0A20FEF74CFDBC
:102710001349087000201349087012E000BF1248E6
:10272000008800F040000028F9D010480D490978D1
:10273000405C0D49091D08800A480078401C094981
:10274000087008480078064909788842E6DBBDEC45
:10275000028B10BD880300201800002020000020FC
:10276000690000206800002000440040D1040020DF
:1027700010B500F0F9F810BD00BFFEE710B52DED63
:10278000028BB0EE408AF0EE608A214890ED021B89
:10279000B0EE410AF0EE610A9FED1E1B53EC112BC7
:1027A00051EC100BFDF70EFF09D251EC180BFDF7A1
:1027B000B9FE00F25A542146184800F0FEFD1448B4
:1027C00090ED021BB0EE410AF0EE610A9FED141B82
:1027D00053EC112B51EC100BFDF7DCFE0AD251EC3F
:1027E000180BFDF79FFE00F2E24421460B4800F073
:1027F000E4FD09E051EC180BFDF794FE00F20A54D9
:102800002146064800F0D9FDBDEC028B10BD00004A
:10281000E0050020000000000000644000040040CB
:102820000000000000004E4010B52DED028BB0EE10
:10283000408AF0EE608A214890ED001BB0EE410A1C
:10284000F0EE610A9FED1E1B53EC112B51EC100BA7
:10285000FDF7B8FE09D251EC180BFDF763FE00F24C
:10286000B4542146184800F0A6FD144890ED001B12
:10287000B0EE410AF0EE610A9FED141B53EC112BF0
:1028800051EC100BFDF786FE0AD251EC180BFDF748
:1028900049FE00F2BE5421460B4800F08CFD09E0D1
:1028A00051EC180BFDF73EFE00F2B45421460648E9
:1028B00000F081FDBDEC028B10BD0000E0050020A2
:1028C0000000000000006440000400400000000020
:1028D00000004E407047000070B5002100230F2219
:1028E000C4781CB3174C246804F4E064C4F5E064B5
:1028F000C4F30721C1F10404E3B20A4144789C40C7
:10290000E1B28478144021430C07210E0E4C057867
:102910006155047804F01F050124AC4005786D1161
:10292000AD0005F1E025C5F8004109E0047804F0A8
:102930001F050124AC40054D0678761145F8264068
:1029400070BD00000CED00E000E400E080E100E07C
:1029500002490143024A1160704700000000FA0575
:102960000CED00E07047000010B52DED028B0D4915
:10297000486AFDF7C6FD41EC180BB0EE480AF0EED0
:10298000680AFEF7A9FB0749086AFDF7BAFD41ECA2
:10299000180BB0EE480AF0EE680AFEF7D1FBBDEC6A
:1029A000028B10BD4003002029B1064A1268024381
:1029B000044B1A6004E0034A12688243014B1A6018
:1029C000704700003038024029B1064A12680243BD
:1029D000044B1A6004E0034A12688243014B1A60F8
:1029E000704700003838024029B1064A1268024395
:1029F000044B1A6004E0034A12688243014B1A60D8
:102A0000704700004038024029B1064A126802436C
:102A1000044B1A6004E0034A12688243014B1A60B7
:102A2000704700004438024029B1064A1268024348
:102A3000044B1A6004E0034A12688243014B1A6097
:102A40007047000024380240F0B500210022002425
:102A5000022500260223324F3F6807F00C0121B106
:102A6000042905D0082937D105E02E4F076036E04C
:102A70002D4F076033E02A4F3F1F3F68C7F3805652
:102A8000274F3F1F3F6807F03F036EB1264FB7FB4C
:102A9000F3F7DFF88CC0ACF1040CDCF800C0CCF329
:102AA000881C07FB0CF40CE01E4FB7FBF3F7DFF8B4
:102AB00070C0ACF1040CDCF800C0CCF3881C07FB40
:102AC0000CF4174F3F1F3F68C7F301477F1C7D0081
:102AD000B4FBF5F7076002E0124F076000BF00BFCC
:102AE0000F4F3F6807F0F0010909104F7A5C076843
:102AF000D74047600A4F3F6807F4E051890A0B4FFF
:102B00007A5C4768D7408760054F3F6807F46041AB
:102B1000490B064F7A5C4768D740C760F0BD00009C
:102B2000083802400024F40000127A00040100205A
:102B300000B587B001210220FFF736FF012108030D
:102B4000FFF762FF3820059002208DF81800002062
:102B50008DF81A0003208DF8190001208DF81B0054
:102B600005A92248FEF75DFC052203211F48FEF758
:102B7000A0FC052204211D48FEF79BFC05221146FE
:102B80001A48FEF796FC01210803FFF74DFF0021CC
:102B90004FF48050FFF748FF0020ADF800004FF4DD
:102BA0008270ADF802000020ADF804000220ADF8FC
:102BB00006000120ADF808004002ADF80A003820F8
:102BC000ADF80C000020ADF80E000720ADF81000A5
:102BD0006946074800F064F80121054800F046F80E
:102BE000FF2000F007F807B000BD0000000402401D
:102BF0000030014070B50546002400BF0221104896
:102C000000F040F80028F9D0601CC4B2C82C01DDE7
:102C1000002070BD29460A4800F040F800BF01219D
:102C2000074800F02FF80028F9D0601CC4B2C82C67
:102C300001DD0020EDE7024800F02DF8C0B2E8E722
:102C40000030014010B50446074800884FF6C771B0
:102C50000840054908800846008820430880012173
:102C6000014800F003F810BD0030014021B1028896
:102C700042F04002028004E002884FF6BF731A401F
:102C8000028070470246002013890B400BB10120DF
:102C900000E00020704701468889704781817047B5
:102CA00010B50022028802F441520B884C8823435D
:102CB0008C882343CC8823430C8923434C892343AA
:102CC0008C892343CC8923431A430280838B4FF2A0
:102CD000FF74234083830B8A038210BD704700007A
:102CE00010B5002400BF20E0FEF70AFC04EB44010D
:102CF0000F4A02EB81018968884215D304EB440036
:102D0000114601EB8000806804EB440102EB810175
:102D10004968084404EB440102EB8101886004EB3C
:102D2000440152F821008047641C052CDCD310BDFF
:102D30002C0000200CB50020019000903448006861
:102D400040F480303249086000BF3148006800F428
:102D5000003000900198401C0190009818B901982B
:102D6000B0F5A04FF1D12A48006800F4003010B14E
:102D70000120009001E0002000900098012846D139
:102D800023484030006840F08050214940310860BD
:102D90002048006840F440401E4908601C48083044
:102DA00000681B49083108600846006840F400408C
:102DB00008600846006840F4A05008601648091FE3
:102DC0000860081F006840F08070091F086000BF9D
:102DD0000F48006800F000700028F9D040F205703C
:102DE0000E4908600A480830006820F003000849CE
:102DF000083108600846006840F00200086000BF23
:102E000003480830006800F00C000828F8D10CBD19
:102E1000003802400070004008544007003C024067
:102E2000034880ED000B034880ED001B7047000055
:102E30008000002088000020074880ED140B80ED02
:102E4000161B80ED182B9FED055B80ED205B9FED41
:102E5000055B80ED225B70478803002000000000C6
:102E60000000184000000000000018C0054880ED78
:102E7000280B80ED2A1B80ED2C2B80ED343B80ED60
:102E8000364B704788030020054880ED3C0B80EDF1
:102E90003E1B80ED402B80ED483B80ED4A4B704758
:102EA00088030020074880ED000B80ED021B80EDB9
:102EB000042B9FED055B80ED0C5B9FED055B80EDCA
:102EC0000E5B7047880300200000000000001840DF
:102ED00000000000000018C0042808D14FF0E021D5
:102EE000096941F004014FF0E022116107E04FF061
:102EF000E021096921F004014FF0E02211617047DF
:102F00007047000010B51548006840F47000134980
:102F100008601348006840F0010011490860002073
:102F20000F49083108600E4800680E4908400C49F6
:102F300008600D48091D0860081F006820F4802003
:102F4000091F0860002006490C310860FFF7F2FEF7
:102F50004FF0006001498039086010BD88ED00E045
:102F600000380240FFFFF6FE1030002430B58BB071
:102F700004460D4601210220FFF736FD0121042001
:102F8000FFF712FD022206213248FEF792FA0222D2
:102F900007213048FEF78DFA022208212D48FEF75E
:102FA00088FA022209212B48FEF783FA4FF4707049
:102FB000099002208DF8280003208DF829000020B8
:102FC0008DF82A0001208DF82B0009A92148FEF771
:102FD00028FAA8B2ADF818000020ADF81A0007943E
:102FE000ADF8200006A91C4800F0ECF96020ADF80F
:102FF00004000120ADF806000020ADF8100001A982
:10300000154800F08BF801A9134800F0CFF801A98A
:10301000114800F02BF901A90F4800F081F90821AF
:103020000D4800F0B9F808210B4800F011F908210B
:10303000094800F06BF90821074800F0ADF90121BB
:10304000054800F027F80121034800F035F80BB0DF
:1030500030BD0000000802400004004010B501210E
:103060000A4800F041F801280AD109490869804757
:103070000021064800F0A3F96421044800F099F902
:103080000121024800F015F810BD000000080040C2
:10309000B401002021B1028842F08002028004E0E5
:1030A00002884FF67F731A4002807047CA4302823B
:1030B0007047CA430282704721B1028842F0010280
:1030C000028004E002884FF6FE731A4002807047C7
:1030D0000146486A704702460020138A0B400BB134
:1030E000012000E00020704730B502460020002398
:1030F0000024158A05EA0103958905EA010413B144
:103100000CB1012000E0002030BD1AB183890B43CF
:10311000838102E083898B438381704770B50024EB
:1031200000220023058C4FF6FE7635400584028C84
:103130008388048B4FF68F752C40B51E2C400D886C
:103140002C43751E2A408D892A434D882A43104DF1
:10315000A84202D00F4DA84213D14FF6F7752A406E
:10316000CD892A434FF6FB752A408D882A434FF6B6
:10317000FF652B404FF6FF552B400D8A2B434D8AA0
:103180002B43838004838D684563028470BD0000F7
:1031900000000140000401400A460021018B4FF667
:1031A000F7731940114301837047000070B5002484
:1031B00000220023058C4FF6EF7635400584028C03
:1031C0008388048B48F6FF752C404FF6FF452C4052
:1031D0000D884FF6FF7606EA05252C434FF6DF757E
:1031E0002A408D8906EA05152A434D8806EA051509
:1031F0002A43154DA84202D0144DA8421DD14FF6C6
:103200007F752A40CD894FF6FF7606EA05152A43D9
:103210004FF6BF752A408D8806EA05152A434FF6FA
:10322000FF352B404FF2FF752B400D8A06EA8505CE
:103230002B434D8A06EA85052B43838004838D68E2
:103240008563028470BD000000000140000401405D
:103250000A460021018B4FF2FF7319404FF6FF73AE
:1032600003EA0223194301837047000070B500246C
:1032700000220023058C4FF6FF6635400584028C42
:103280008388848B4FF68F752C404FF6FC752C404D
:103290000D882C434FF6FF552A408D894FF6FF7657
:1032A00006EA05252A434D8806EA05252A43154DD9
:1032B000A84202D0144DA8421DD14FF2FF752A40FA
:1032C000CD894FF6FF7606EA05252A434FF6FF35EE
:1032D0002A408D8806EA05252A434EF6FF752B40C5
:1032E0004DF6FF752B400D8A06EA05152B434D8AD6
:1032F00006EA05152B43838084838D68C5630284A9
:1033000070BD000000000140000401400A46002199
:10331000818B4FF6F773194011438183704700008A
:1033200070B5002200230024058C4EF6FF76354050
:103330000584038C8488828B48F6FF752A404FF6FB
:10334000FF452A400D884FF6FF7606EA05252A43F9
:103350004DF6FF752B408D8906EA05352B434D88C8
:1033600006EA05352B430A4DA84202D0094DA84272
:1033700008D14BF6FF752C400D8A4FF6FF7606EA12
:1033800085152C43848082838D680564038470BD19
:1033900000000140000401400A460021818B4FF2E9
:1033A000FF7319404FF6FF7303EA02231943818329
:1033B0007047C162704741637047816370474162E3
:1033C0007047000000220288184B98420ED0184B1C
:1033D00098420BD0B0F1804F08D0164B984205D0E0
:1033E000154B984202D0154B984204D14FF68F737B
:1033F0001A404B881A43124B984207D0114B9842FF
:1034000004D04FF6FF431A400B891A4302804B68E1
:10341000C3620B880385054B984202D0044B984247
:1034200001D18B7A0386012383827047000001401B
:10343000000401400004004000080040000C00406F
:10344000001000400014004070B52DED068B4FF0C9
:103450008040FFF73DFE0446B4F57A7F0AD900218B
:103460004FF08040FFF7ABFFB74800682044B649F3
:1034700008600024B44800682044B4490860B44897
:10348000FDF77AFD35286BD004DC152807D02528F8
:103490007DD125E045287BD06528F9D125E1AC48D0
:1034A0004078AB49097840EA012000B2A949088078
:1034B000A748C078A649897840EA012000B2A5490A
:1034C0004880A3484079A249097940EA012000B226
:1034D000A0498880152203219E4801F016FD2FE1A6
:1034E0009B4840789A49097840EA012000B29A49FD
:1034F00008809748C0789649897840EA012000B250
:1035000095494880924840799149097940EA0120DB
:1035100000B291498880B1F90000FCF7F2FF41EC5C
:10352000180B9FED8E0B53EC102BFCF709FF8D4A07
:10353000C2E908018849B1F90200FCF7E2FF41EC59
:10354000180B9FED860B53EC102BFCF7F9FE854A08
:10355000C2E90A01252203217F4801F0D6FCEFE0F1
:103560007B4840787A49097840EA012000B27E49D8
:1035700008807748C0787649897840EA012000B20F
:1035800079494880724840797149097901E0D6E06B
:103590000AE040EA012000B2734988803522032105
:1035A000714801F0B2FCCBE069484078684909787D
:1035B00040EA012000B26D4908806548C07864493E
:1035C000897840EA012000B2694908806048407962
:1035D0005F49097940EA012000B2664908806348E2
:1035E000B0F90000644908806148B0F900004880E3
:1035F0006048B0F9000088805D48B0F90000FCF731
:1036000080FF41EC1A0B9FED5D0B53EC102BFCF788
:1036100097FE41EC190BFCF785FF0546FCF771FF9F
:1036200041EC180B9FED550B53EC102BFCF788FE6B
:103630004C4A03C24D48B0F90000FCF762FF41EC70
:103640001A0B9FED4E0B53EC102BFCF779FE41EC5F
:10365000190BFCF767FF0546FCF753FF41EC180B0D
:103660009FED460B53EC102BFCF76AFE3D4AC2E976
:103670000201104690ED021BB0EE410AF0EE610A25
:103680009FED401B53EC112B51EC100BFCF79AFFF4
:103690000FD2344890ED021BB0EE410AF0EE610A01
:1036A00053EC102B9FED391B51EC110BFCF742FE34
:1036B00012E02C4890ED021BB0EE410AF0EE610AD8
:1036C00053EC102B9FED311B51EC110BFCF791FDCE
:1036D00041EC180B81F00041224AC2E90201452267
:1036E0000321254801F011FC2AE0194840781849C7
:1036F000097840EA012000B2264908801448C078C1
:103700001349897840EA012000B2224948801048D4
:1037100040790F49097940EA012000B21D498880AB
:103720000B48C0790A49897940EA012000B2194959
:10373000C88065220421174801F0E7FB00E000BFC4
:1037400000BFBDEC068B70BDEC000020E80000203F
:10375000C8040020CC000020D20000207B14AE471B
:10376000E17A843F00030020D8000020C000002040
:10377000C2000020C4000020C60000209A99999938
:103780009999B93F0000000000000000000000000F
:1037900000806640DE0000207FB504460D46012112
:1037A0000420FFF721F9ADF800500020ADF8020029
:1037B0000194ADF8080069460D48FFF703FE0122A9
:1037C00011460B48FFF7A1FC01210948FFF774FCE3
:1037D0001E208DF80C0003208DF80D008DF80E00D2
:1037E00001208DF80F0003A8FFF776F87FBD0000D9
:1037F0000008004010B52DED028B40F225516648BF
:1038000000F00EFA00287DD0634800F0C3FA634947
:10381000087008460078702802D1012060490880AD
:103820005F48008801286DD15C4801785D480268D6
:103830000068401C5B4B18605848401C8154184677
:103840000068162807DB00205549088019460860E3
:1038500055A001F069FA51480078652815D1514802
:103860000068162808DB00204D4908804D49086093
:103870004DA001F059FA08E000214848401C494A8F
:103880001268815402204649088045480088022871
:1038900005D1424801F076FB0320414908804048A9
:1038A0000088032874D13D48653000F005FB3F488F
:1038B00080ED000B3E4800F0FFFA3C4880ED020B23
:1038C0003B48643000F0F8FAB0EE408AF0EE608ACF
:1038D0009FED380B53EC102B51EC180BFCF730FD1F
:1038E000324AC2E904013248C83000F0E5FAB0EECD
:1038F000408AF0EE608A9FED2F0B53EC102B51ECB9
:10390000180B00E044E0FCF71BFD284AC2E9060161
:10391000104690ED041BB0EE410AF0EE610A9FEDF7
:10392000271B53EC112B51EC100BFCF74BFE05D26F
:10393000244890ED000B1D4880ED040B1B4890EDD2
:10394000061BB0EE410AF0EE610A9FED1C1B53EC22
:10395000112B51EC100BFCF735FE05D2194890EDF8
:10396000020B124880ED060B00200D4908800D491E
:1039700008600DA001F0D8F90C4890ED040B114837
:1039800080ED000B094890ED060B0E4880ED020B10
:10399000BDEC028B10BD000000500040000600206E
:1039A00040010020440100206F6B0000E005002072
:1039B0004D0A002053910A630B41AE3FCDCCCCCCD5
:1039C000CCCCE43F800B002010B540F225511D48BF
:1039D00000F026F910B31B4800F0DCF9C4B21A4815
:1039E000008800F40040C8B91748008800F48040FF
:1039F00060B10A2C03D000201349088020E012484F
:103A0000008840F400401049088019E00D2C06D1D0
:103A10000D48008840F480400B49088010E00A48B7
:103A20000088C0F30D0009490C5407480088401C69
:103A30000549088008460088C72801DD0020088065
:103A400010BD0000001001401C010020FB040020FC
:103A500010B540F22551584800F0E2F8002878D01F
:103A6000554800F097F9C1B2544802780078401CDC
:103A7000524B18705248815400785A2802D00020C6
:103A8000194608704D480078022806D14C48407805
:103A90005A2802D000204949087048480078042874
:103AA00072DD47488078352820D004DC152807D0FF
:103AB00025283CD10FE0452823D0652837D12BE0BD
:103AC0003E480078401E3E49095C3C480078401F53
:103AD0003C4A11542BE039480078401E3849095CB3
:103AE00036480078401F384A115420E033480078A7
:103AF000401E3349095C31480078401F334A115455
:103B000015E02E480078401E2D49095C2B480078AE
:103B1000401F2F4A11540AE028480078401E2849C7
:103B2000095C26480078401F2A4A115400BF00BF94
:103B30002348C078401D21490978884237D1204860
:103B40008078352819D005DC152808D025282AD1F9
:103B50000CE030E0452818D0652824D11CE01E4830
:103B6000007840F001001C4908701CE01A480078F9
:103B700040F002001849087015E01748007840F03E
:103B80000400154908700EE011E01348007840F079
:103B900008001149087006E00F48007840F0100056
:103BA0000D49087000BF00BF0020044908702021A3
:103BB000014800F013F810BD004800403B01002010
:103BC000CC0500201F010020260100202D0100202F
:103BD00034010020C30500201E01002001F4007202
:103BE000B2F5007F00D100BFCA430280704721B107
:103BF000828942F40052828104E082894DF6FF738B
:103C00001A408281704702460020B1F5007F00D142
:103C100000BF13880B400BB1012000E0002070476B
:103C200070B50246002400230025002040F66A16E5
:103C3000B14200D100BFC1F3421501F01F030126BC
:103C400006FA03F3012D02D19689334006E0022DD6
:103C500002D1168A334001E0968A33400C120126C5
:103C600006FA04F41688344013B10CB1012000E0C8
:103C7000002070BDF0B5034600240026002500207A
:103C800040F66A17B94200D100BF1846C1F342148A
:103C900001F01F06012707FA06F5012C01D10C30AF
:103CA00004E0022C01D1103000E014301AB1076892
:103CB0002F43076002E00768AF430760F0BD0000D4
:103CC0002DE9FF4705460E460024A14600BFA04649
:103CD000B08900B100BF2C8A24F44054F08804431A
:103CE0002C82AC8941F20C608443B088318908434E
:103CF000718908430443AC81AC8A24F44074B089D0
:103D00000443AC826846FEF79FFE2048854202D0FD
:103D10001F48854202D1DDF80C9001E0DDF80890E3
:103D2000A88900F4004040B109EBC90000EB09107C
:103D300031684900B0FBF1F707E009EBC90000EB7F
:103D4000091031688900B0FBF1F76420B7FBF0F08F
:103D500004012009642101FB1078A88900F40040C7
:103D600040B1322000EBC800B0FBF1F000F00700DA
:103D7000044308E0322000EB08106421B0FBF1F0AE
:103D800000F00F0004432C81BDE8FF8700100140C4
:103D90000014014001468888C0F30800704770B5E0
:103DA00004460D4600260EE0681EB04205DD205C8C
:103DB000A15D0844C1B2681E21543146721CD6B2BE
:103DC000605C00F007F8AE42EEDB70BDC1F30802A4
:103DD0008280704710B5044600BF40210448FFF7B9
:103DE00012FF0028F9D00248001D048010BD000019
:103DF0000048004000BFFEE71CB501214020FEF74F
:103E0000D3FD4FF48070009001208DF80400002055
:103E10008DF8060003208DF8050001208DF80700BD
:103E200069460848FDF7FDFA012007490860FEF7DA
:103E30007FFE0020FEF706FF00F00AF80349088025
:103E40001CBD000000180240A002434202010020F5
:103E500010B5002400200E4908609020FEF7CAFE2D
:103E60000020FEF7C7FE0020FEF7C4FE0020FEF78C
:103E7000C1FEFF20FEF7BEFE44EA0024FF20FEF74D
:103E8000B9FE044301200349C1F8A002204610BD39
:103E9000A0024342000043420FB4054B10B503A9F2
:103EA000044A029800F048F810BC5DF814FB0000CA
:103EB000E94400081801002030B583B0044600F042
:103EC00017F89FED090B05468DED000B00222146EA
:103ED0006846FCF728FC284600F020F89DED000B12
:103EE00003B030BD00000000000000000000000032
:103EF0000148006870470000A802002002E008C8DE
:103F0000121F08C1002AFAD170477047002001E053
:103F100001C1121F002AFBD170470000014908604F
:103F200070470000A802002030380A2801D2012082
:103F300070470020704700002DE9FF4F8DB00F46FD
:103F40000546002606E025280BD0DDE90F12904734
:103F50006D1C761C28780028F5D111B03046BDE8DC
:103F6000F08F0024A246A1460122EC4900E0044360
:103F700015F8013F203B02FA03F00842F7D12878F8
:103F80002A2810D06FF02F022878A0F130010929DB
:103F900014D80AEB8A0102EB410144F0020400EB61
:103FA000010A6D1CF0E701CF5FEA000A03D544F473
:103FB0000054CAF1000A44F002046D1C28782E282F
:103FC00017D115F8010F44F004042A280ED06FF021
:103FD0002F022878A0F1300109290AD809EB8901BC
:103FE00002EB410100EB01096D1CF2E757F8049B5D
:103FF0006D1C28786C280FD006DC4C2817D0682858
:104000000DD06A2814D104E0742810D07A280FD17A
:104010000DE044F400140AE044F4801401E044F498
:1040200040146978814202D104F580146D1C6D1C26
:104030002A786E2A1FD00CDC632A31D004DC002AD7
:104040008BD0582A11D1A3E0642A68D0692A0CD1F8
:1040500065E0732A2ED004DC6F2A73D0702A04D155
:104060009BE0752A6FD0782A6ED01046DDE90F12DA
:104070009047761C50E1C4F30250022806D0032872
:1040800009D0042801CF09D0066045E101CFF1171E
:10409000C0E9006140E101CF06803DE106703BE1EF
:1040A00017F8040B8DF8000000208DF80100EB4696
:1040B000012003E057F804BB4FF0FF3061074FF0D9
:1040C000000102D40DE008F10101884649450FDAEC
:1040D0008045F8DB1BF808100029F4D108E008F14E
:1040E000010188468142FADB1BF808100029F6D14D
:1040F000DDE90F23AAEB08008146214600F036F9DE
:10410000304400EB080604E0DDE90F121BF8010B58
:104110009047B8F10108F7D221464846F7E00A2156
:10412000C4F302534FF0000B0891022B04D001CFCF
:10413000C117032B09D00AE0FF1D27F00707F7E896
:10414000020108E032E01FE020E000B2C117042BBA
:1041500001D140B2C117031E71F1000307DA4FF01D
:10416000000CD0EB0C006CEB01012D2302E02305C9
:1041700004D52B238DF82430012303E0E30701D07D
:104180002023F7E7984658E00A2110E010210EE0BE
:1041900010204FF0000B08900CE010214FF0000BA6
:1041A00044F004044FF00809089103E008214FF09F
:1041B000000B0891C4F30253022B04D001CF00215D
:1041C000032B06D006E0FF1D27F00707F7E80201E2
:1041D00003E080B2042B00D1C0B24FF000082307E7
:1041E0002BD5702A07D0DDF820C08CF0100C5CEACB
:1041F0000B0C05D00EE040238DF82430012308E09D
:1042000050EA010306D030238DF824308DF82520A4
:1042100002239846DDF820C08CF0080C5CEA0B0CF9
:104220000BD150EA010301D1630706D530238DF885
:1042300024304FF00108A9F10109582A04D038A20E
:104240000B9208AA0A920BE03AA2F9E75B46089A99
:10425000FCF7ECF90B9B9B5C0A9A521E0A921370B6
:1042600050EA0102F2D10A98ADEB000000F1200BF8
:10427000600702D524F4803401E04FF00109D945EC
:1042800002DDA9EB0B0000E0002000EB0B01414434
:104290000890AAEB010AE00306D4DDE90F232146CA
:1042A000504600F063F806444FF0000908E009A901
:1042B00011F80900DDE90F12904709F10109761C98
:1042C000C145F4DBE0030CD5DDE90F232146504660
:1042D00000F04CF8064404E0DDE90F12302090476E
:1042E000761C0899481E08900029F5DC08E00A9819
:1042F0000A990078491C0A91DDE90F129047761C53
:10430000BBF10001ABF1010BF1DC21465046DDE9C8
:104310000F2300F019F806446D1C1BE60928010064
:10432000303132333435363738396162636465662B
:1043300000000000303132333435363738394142ED
:1043400043444546000000002DE9F04104460025A5
:104350001E461746880404D405E039462020B0479D
:104360006D1C641EF9D52846BDE8F0812DE9F041A9
:10437000044600251E469046C80301D5302700E0BC
:104380002027880404D505E041463846B0476D1C17
:10439000641EF9D52846BDE8F081000010B504463A
:1043A0006FF00400FEF798FDE11704EB5171C1F3C3
:1043B000C701074A11701046007800EB4001C1EBBD
:1043C000C0104FF6FF7101EAC0000249088010BD1D
:1043D000140100201601002070B504464FF4077048
:1043E00094FBF0F0C6B24FF4077094FBF0F100FBC1
:1043F000114085B205E04FF4077000F02FF8701EF1
:10440000C6B2002EF7D115B1284600F027F870BDCE
:104410000146114A12784A434FF0E0235A610022C4
:104420009A611A46126942F001021A6100BF4FF008
:10443000E022106900F001021AB100F48032002A73
:10444000F5D04FF0E022126922F001024FF0E02394
:104450001A6100229A617047140100200146114A36
:1044600012884A434FF0E0235A6100229A611A46AB
:10447000126942F001021A6100BF4FF0E022106998
:1044800000F001021AB100F48032002AF5D04FF09A
:10449000E022126922F001024FF0E0231A610022AB
:1044A0009A617047160100200EB501210846FEF7FB
:1044B0009BFA4FF6FF70019048F69F40ADF8000060
:1044C0000020ADF80800ADF8020069464FF08040CA
:1044D000FEF778FF00214FF08040FEF770FF0121CA
:1044E0008807FEF7E9FD0EBD00BF054A128802F0FD
:1044F0004002002AF9D0C2B2014B9A8070470000F6
:104500000010014010B50246012000E050430B1E90
:10451000A1F10101FAD110BDFCF7ECFB0F490870C5
:10452000FFF7C2FF40F2B4510D48FEF744FF40F2DE
:104530000A510B48FEF741FFC820FFF74DFF09A0C5
:1045400000F0F2FB0520FFF747FF05E00348007885
:10455000012801D1FEF7C4FBF8E70000F0020020BB
:10456000000400406F6B0000022806D127498968CB
:10457000274A51602549C9689160052806D1234919
:10458000096A234A51602149496A9160012806D18C
:104590001E4909681E4A51601C49496891600328F8
:1045A00006D11A4909691A4A516018494969916046
:1045B000042806D115498969154A51601349C9690A
:1045C0009160062806D11149896A114A51600F4944
:1045D000C96A9160072806D10C49096B0C4A5160E1
:1045E0000A49496B9160082806D10849896B084A35
:1045F00051600649C96B9160092806D10349096CCD
:10460000034A51600149496C9160704740030020A2
:10461000F002002000B52DED108B8DB0B0EE40BA49
:10462000F0EE60BA9FED6C0BB0EE409AF0EE609A3F
:104630009FED6B0B8DED060B9FED6B0B8DED040B62
:104640006B4890ED000BB0EE40DAF0EE60DA90EDE2
:10465000020B8DED0A0B90ED040B8DED080B6548F8
:1046600090ED021BB0EE410AF0EE610A53EC102B04
:1046700051EC1B0BFBF75EFE41EC180B5C4880ED28
:10468000068B53EC1C2B51EC180BFBF753FE41EC43
:104690001E0B9DED080B53EC102BFBF751FE53EC5A
:1046A0001A2BCDE902019DED0A0B51EC100BFBF723
:1046B00047FE41EC1E0B53EC182B51EC1D0BFBF786
:1046C0003FFE41EC1F0B53EC1E2BFBF792FDCDE997
:1046D00000019DED020B53EC102B9DED000B51ECF6
:1046E000100BFBF786FD41EC190B414880ED109B48
:1046F0009DED060B53EC102B51EC190BFBF762FFF1
:1047000002D29DED060B03E0B0EE490AF0EE690A15
:10471000B0EE409AF0EE609A9DED040B53EC102B36
:1047200051EC190BFBF736FF02D29DED040B03E0B1
:10473000B0EE490AF0EE690AB0EE409AF0EE609AE7
:104740002B4880ED129B9FED2C0B53EC102B51EC62
:10475000180BFBF71FFF06D253EC182B51EC1A0B6A
:10476000FBF747FD01E051EC1A0B41EC1A0B9FEDF2
:10477000240B53EC102B51EC1A0BFBF723FF02D246
:104780009FED1F0B03E0B0EE4A0AF0EE6A0AB0EEAE
:1047900040AAF0EE60AA9FED1C0B53EC102B51ECDD
:1047A0001A0BFBF7F7FE02D29FED170B03E0B0EEFA
:1047B0004A0AF0EE6A0AB0EE40AAF0EE60AAB0EE45
:1047C00048CAF0EE68CAB0EE490AF0EE690A0DB0C8
:1047D000BDEC108B00BD00000000000000000000D8
:1047E000000000000000224000000000000022C085
:1047F00088030020E00500200000000000002E409B
:10480000000000000000394000000000000039C036
:1048100000B52DED108B8DB0B0EE40BAF0EE60BA61
:104820009FED660BB0EE409AF0EE609A9FED650B3F
:104830008DED060B9FED650B8DED040B654890ED3E
:10484000280BB0EE40DAF0EE60DA90ED2A0B8DED39
:104850000A0B90ED2C0B8DED080B5F4890ED001BC3
:10486000B0EE410AF0EE610A53EC102B51EC1B0B39
:10487000FBF760FD41EC180B564880ED068B53ECBE
:104880001C2B51EC180BFBF755FD41EC1E0B9DED5D
:10489000080B53EC102BFBF753FD53EC1A2BCDE90F
:1048A00002019DED0A0B51EC100BFBF749FD41ECA9
:1048B0001E0B53EC182B51EC1D0BFBF741FD41EC8B
:1048C0001F0B53EC1E2BFBF794FCCDE900019DED73
:1048D000020B53EC102B9DED000B51EC100BFBF772
:1048E00088FC41EC190B9FED3D0B53EC102B51EC68
:1048F000180BFBF74FFE06D253EC182B51EC1A0B9A
:10490000FBF777FC01E051EC1A0B41EC1A0B9FED21
:10491000350B53EC102B51EC1A0BFBF753FE08D35D
:104920009FED320B53EC102B51EC180BFBF732FEC2
:1049300002D29FED220B03E0B0EE4A0AF0EE6A0AC3
:10494000B0EE40AAF0EE60AA224880ED389B9DEDC3
:10495000060B53EC102B51EC190BFBF733FE02D274
:104960009DED060B03E0B0EE490AF0EE690AB0EEE9
:10497000409AF0EE609A9DED040B53EC102B51EC35
:10498000190BFBF707FE02D29DED040B03E0B0EE1E
:10499000490AF0EE690AB0EE409AF0EE609A0D48CE
:1049A00080ED3A9BB0EE48CAF0EE68CAB0EE490A14
:1049B000F0EE690A0DB0BDEC108B00BD00000000E8
:1049C0000000000000000000000022400000000085
:1049D000000022C088030020E00500200000000045
:1049E00000002E4000000000008041400000000058
:1049F000008041C000B52DED108B87B0B0EE409A1D
:104A0000F0EE609A9FED5A0BB0EE408AF0EE608AAD
:104A10009FED590B8DED020B9FED590B8DED000BAA
:104A2000594890ED021BB0EE410AF0EE610A9FED8D
:104A3000571B53EC112B51EC100BFBF7C3FD09D2A4
:104A40009FED540B53EC102B51EC190BFBF7D1FBE2
:104A500041EC190B4C4890ED021BB0EE410AF0EE10
:104A6000610A9FED4A1B53EC112B51EC100BFBF725
:104A700091FD09D29FED3E0B53EC102B51EC190B1D
:104A8000FBF758FC41EC190B444890ED14CB90ED2A
:104A9000180B8DED040B424890ED000B53EC102BDE
:104AA00051EC190BFBF746FC41EC1D0B81F000416A
:104AB00041EC1A0B51EC1A0B384AC2E91A0153ECBB
:104AC0001B2B51EC1A0BFBF735FC41EC1F0B9DED3A
:104AD000040B53EC102BFBF733FC41EC1D0B53EC98
:104AE0001A2B51EC1C0BFBF72BFC41EC1E0B53EC6F
:104AF0001D2BFBF77EFB41EC180B284880ED248B27
:104B00009DED020B53EC102B51EC180BFBF75AFDEB
:104B100002D29DED020B03E0B0EE480AF0EE680A07
:104B2000B0EE408AF0EE608A9DED000B53EC102B46
:104B300051EC180BFBF72EFD02D29DED000B03E0AC
:104B4000B0EE480AF0EE680AB0EE408AF0EE608AF5
:104B5000124880ED268BB0EE4ABAF0EE6ABAB0EE9B
:104B6000480AF0EE680A07B0BDEC108B00BD0000EB
:104B70000000000000000000000000000000644091
:104B800000000000000064C0E005002000000000FC
:104B900000805840713D0AD7A370E5BF880300200C
:104BA0001800002000B52DED108B87B0B0EE409AB4
:104BB000F0EE609A9FED510BB0EE408AF0EE608A05
:104BC0009FED500B8DED040B9FED500B8DED020B07
:104BD000504890ED001BB0EE410AF0EE610A9FEDE7
:104BE0004E1B53EC112B51EC100BFBF7EBFC0AD2D4
:104BF0009FED420B53EC102B51EC190BFBF7F9FA1C
:104C000041EC190B09E09FED3D0B53EC102B51ECDF
:104C1000190BFBF78FFB41EC190B414890ED14CBBE
:104C200090ED18DB3F4890ED000B53EC102B51EC4E
:104C3000190BFBF77FFB41EC1A0B51EC1A0B384AAE
:104C4000F032C2E9060153EC1B2B51EC1A0BFBF7B7
:104C500071FB53EC1D2BCDE900019DED000B51ECD8
:104C6000100BFBF76DFB41EC1E0B53EC1A2B51ECB8
:104C70001C0BFBF765FB41EC1F0B53EC1E2BFBF7EA
:104C8000B8FA41EC180B264880ED4C8B9DED040BD7
:104C900053EC102B51EC180BFBF794FC02D29DED5A
:104CA000040B03E0B0EE480AF0EE680AB0EE408A6A
:104CB000F0EE608A9DED020B53EC102B51EC180BBB
:104CC000FBF768FC02D29DED020B03E0B0EE480A50
:104CD000F0EE680AB0EE408AF0EE608A104880ED8F
:104CE0004E8BB0EE4ABAF0EE6ABAB0EE480AF0EE79
:104CF000680A07B0BDEC108B00BD0000000000008A
:104D000000000000000000000000644000000000FF
:104D1000000064C0E0050020000000000080594051
:104D200088030020200000200FB42DE9F8434FF045
:104D30000009002609A80090A5E0089800780A2834
:104D400070D00D286FD025286ED10898401C08908F
:104D500008980078632876D0642804D0732865D03A
:104D6000782879D129E0009880C800903D46002439
:104D700004E0601CC4B20A2095FBF0F5002DF8D1C8
:104D800026443D4616E0611E0A20FFF7BBFBB5FB3B
:104D9000F0F000F0FF08611E0A20FFF7B3FBB5FB3F
:104DA000F0F100FB115508F13001C8B200F082F8B3
:104DB000601EC4B2002CE6D14FE0009880C800907D
:104DC0003D46002406E0601CC4B22846E91705EB06
:104DD00011710D11002DF6D126443D461FE0611ED4
:104DE0001020FFF78FFBB5FBF0F000F0FF08611E0D
:104DF0001020FFF787FBB5FBF0F100FB1155B8F170
:104E0000090F05DC08F13001C8B200F053F804E0E6
:104E100008F15701C8B200F04DF8601EC4B2002C72
:104E2000DDD11AE01BE01FE023E00CE0009850F811
:104E3000049B0090484600F031F84846FBF7D2F951
:104E400006440AE008E0009911F8042BD0B2009162
:104E500000F030F8761C00E000BF00BF00BF0A2061
:104E600000F028F8761C0AE00D2000F023F8761CEC
:104E700005E00899087800F01DF8761C00BF00BF17
:104E80000898401C08900898007800287FF455AFD7
:104E900000903046BDE8F8035DF814FB10B50446F9
:104EA00003E014F8010B00F005F820780028F8D191
:104EB00010BD000010B5044600BF40210448FEF7B5
:104EC000A2FE0028F9D021460148FEF77FFF10BD61
:104ED0000050004070B505460C460748056007487D
:104EE0000460054801680648FEF765FA0348016852
:104EF0000348FEF762FA70BD7400002078000020BD
:104F0000000400400146086870472DE9F04186B072
:104F100007460D469046002400266800411D01A862
:104F2000FBF755F95A222146641C01A84254214638
:104F3000641C42542146641C00F801806806020E7D
:104F40002146641C01A8425400BF11E037F8160046
:104F5000C0F307222046611CCCB201A90A5417F8FD
:104F600016202046611CCCB201A90A54701CC6B29E
:104F7000AE42EBDB142101A8FEF711FF06B0BDE83D
:104F8000F081000010B53C490968002972D100BFCA
:104F900000226BE0431C5B5C782B15D14B1E441C3C
:104FA000E35C762B10D0491C002205E0431C5C5CBE
:104FB00064339C54521C491C431C5B5C792BF5D117
:104FC000002400F165039C54431C5B5C792B16D1D3
:104FD0004B1E441CE35C762B11D0491C002206E0DA
:104FE000431C5C5C00F24D439C54521C491C431C06
:104FF0005B5C762BF4D1002400F24D439C54431C9F
:105000005B5C762B16D1431C4C1C1B5D782B11D19D
:10501000891C002206E0431C5C5C00F2B1439C54F6
:10502000521C491C431C5B5C762BF4D1002400F21B
:10503000B1439C54431C5B5C762B16D1431C4C1C27
:105040001B5D792B11D1891C002206E0431C5C5C9E
:1050500000F215539C54521C491C431C5B5C652B8D
:10506000F4D1002400F215539C54491C431C5B5C92
:10507000002B8FD110BD00003C01002010B586B080
:10508000044601214804FDF7AFFC01210846FDF765
:105090008BFC072202211848FCF70BFA0722032198
:1050A0001548FCF706FA02208DF8140000208DF850
:1050B00016000C20049001208DF8170003208DF8B5
:1050C000150004A90C48FCF7ACF900940020ADF8D9
:1050D0000400ADF80600ADF80800ADF80C000C2097
:1050E000ADF80A0069460548FEF7EAFD01210348CC
:1050F000FEF77DFD06B010BD0000024000440040F8
:1051000010B588B0044601210805FDF76DFC0121AA
:105110000820FDF749FC01210420FDF745FC082289
:105120000C212648FCF7C5F9082202212448FCF787
:10513000C0F902208DF81C0000208DF81E0004200C
:10514000069001208DF81F0003208DF81D0006A990
:105150001B48FCF766F94FF48050069006A91748E3
:10516000FCF75FF902940020ADF80C00ADF80E00DA
:10517000ADF81000ADF814000C20ADF8120002A933
:105180001048FEF79DFD01210E48FEF730FD01227B
:1051900040F225510B48FEF76DFD35208DF80400D7
:1051A00003208DF8050002208DF8060001208DF8FF
:1051B000070001A8FDF790FB08B010BD00080240F1
:1051C000000C02400050004010B588B00446012198
:1051D0000846FDF7E9FB01211020FDF715FC072229
:1051E00009212248FCF765F907220A211F48FCF72C
:1051F00060F94FF4C060069002208DF81C008DF815
:105200001D0000208DF81E0001208DF81F0006A94A
:105210001648FCF706F902940020ADF80C00ADF832
:105220000E00ADF81000ADF814000C20ADF812001F
:1052300002A90F48FEF744FD01210D48FEF7D7FCF7
:10524000012240F225510A48FEF714FD25208DF871
:10525000040003208DF8050001208DF806008DF86C
:10526000070001A8FDF738FB08B010BD00000240A0
:105270000010014030B595B0054613AB12AA09A93C
:10528000284600F039FA044614B1204615B030BD66
:105290000020149026E0224909689DF8502001EB77
:1052A000C20113AB11AA486801A900F025FA04460F
:1052B0000CB12046EAE709A901A800F0BBFC60B9DF
:1052C0009DF844009DF84810884201DD0220DDE78A
:1052D0009DF85000124988750AE09DF85000401C66
:1052E000C0B214900E48007D9DF850108842D2DC68
:1052F00000BF0B48007D9DF85010884201D104206A
:10530000C4E714A9284600F0D7FA04460CB1204699
:10531000BCE79DF85000024948750020B6E7000040
:10532000B40100202DE9F0419AB09C48847D007DB5
:10533000A04202DC1AB0BDE8F0819849096801EB8F
:10534000C40106AB07AA486808A900F0D5F908A966
:1053500093A0FEF7A1FD002644E09048008B0121B8
:10536000B1400840D8B122218FA0FEF795FD30460C
:1053700000F028FB89492431471839468BA0FEF7F5
:105380008BFD222188A0FEF787FD304600F01AFB36
:1053900082492431084410A941F8260018E030461B
:1053A00000F010FB7D492431085810A941F826006F
:1053B0007A48C07D30B910A850F826107CA0FEF7BE
:1053C0006BFD05E010A850F826107AA0FEF764FDEA
:1053D0009DF81C00401EB04202D078A0FEF75CFD94
:1053E000701CC6B29DF81C008642B6DB74A0FEF7A6
:1053F00053FD00F039FB6948407D0B280DD2DFE8F2
:1054000000F0060D151E27323F4E5F72870063497C
:10541000096851F834008047054690E05F4A1268F9
:1054200052F8341010988847054688E05B4B1B689B
:1054300053F83420DDE91001904705467FE0574FCF
:105440003F6857F8343010A807C89847054676E0FB
:10545000DFF848C1DCF800C05CF8347010A80FC851
:10546000B84705466BE01498DFF830C10090DCF8CF
:1054700000C05CF8347010A80FC8B84705465EE05D
:10548000DDE91401DFF814C1CDE90001DCF800C04A
:105490005CF8347010A80FC8B84705464FE0DDE946
:1054A00014121698DFF8F4C0CDE900120290DCF86F
:1054B00000C05CF8347010A80FC8B84705463EE03D
:1054C000DDE91423DDE91610DFF8D0C0CDE90023B3
:1054D000CDE90210DCF800C05CF8347010A80FC8E9
:1054E000B84705462BE0DDE91523DDE91710CDE9C6
:1054F0000123CDE903101498DFF8A0C00090DCF878
:1055000000C05CF8347010A80FC8B847054616E014
:10551000DDE91623DDE91810CDE90223CDE90410F9
:10552000DDE91401DFF874C0CDE90001DCF800C04A
:105530005CF8347010A80FC8B847054600BF00BF1C
:1055400000F050FA9DF8180001280CD11348C07DD6
:1055500020B929461BA0FEF79FFC07E029461BA0A7
:10556000FEF79AFC02E018A0FEF796FC0B4890F8B4
:10557000EC0088B10948D0F8F0000A21B0FBF1F244
:1055800001FB12070548D0F8F000B0FBF1F83A46ED
:10559000414611A0FEF780FC00BFCBE6B40100201D
:1055A0000D0A257328000000256300002573000004
:1055B000256C750030582558000000002C000000B4
:1055C000290000003D256C753B0D0A003D30582533
:1055D000583B0D0A0000000046756E6374696F6EDB
:1055E0002052756E2054696D653A25642E2531640C
:1055F0006D730D0A00000000F0B50346154600204B
:1056000000220026002455E01F782C2F01D104B978
:1056100001221F78292F01D01F780FB904B94AE061
:10562000002E34D11F78302F02DB1F78392F11DD87
:105630001F78612F02DB1F78662F0BDD1F78412F4B
:1056400002DB1F78462F05DD1F78582F02D01F7808
:10565000782F0CD102B12EE01F78612F03DB1F7869
:10566000203F0F7001E01F780F70491C1FE01F786A
:10567000222F04D102B11EE00126012417E01F7879
:10568000202F14D01F782C2F11D0FF2613E01F7865
:10569000222F00D1002402B10DE044B11F785C2F0D
:1056A00002D15B1C471CF8B21F780F70491C471CC5
:1056B000F8B25B1CA8E700BF00270F702E70F0BD8A
:1056C00010B50446002010700BE020780870641CB0
:1056D000491C1078401C10701078984201DB0120A2
:1056E00010BD2078202802D020780028EDD100209D
:1056F000087000BFF4E700002DE9FF4F85B0804639
:1057000089460027002004900390012002904FF06A
:10571000000B002544461DE02078202816D005F017
:105720007F00052812DA0DB945F0800505F07F00ED
:10573000042803D120782A2800D00EE0207805F034
:105740007F010DF80100681CC5B202E0852D00D173
:1057500003E0641C20780028DED100BF8DB100205A
:1057600005F07F010DF8010051A1684600F062FAD2
:1057700018B900210898017002E001210898017011
:1057800000254FF0000A444614E0641C0AF10100B1
:1057900000F0FF0A2078202802D020782A2809D19A
:1057A000204600F0D7F90646282E03D02A2E01D035
:1057B000CDF810A02078282802D020780028E4D145
:1057C0004446049810B10498401C04444FF0000A69
:1057D000002654E0207810B94FF0010A50E02078FC
:1057E000282803D116B9781CC7B213E020782928DD
:1057F00008D13EB917B1781EC7B201E04FF0010AD7
:1058000047B93DE02078222804D10EB9012000E0FC
:105810000020064647B9207820282FD0207889F824
:10582000000009F1010929E020782C2804D1012089
:105830000290681CC5B214E02078202811D020788E
:1058400028280ED04DB9BBF1050F06DA20780DF8E7
:105850000B000BF1010000F0FF0B0298401CC0B2DE
:105860000290012F0AD10298022807D10298401C09
:10587000C0B202900398401CC0B20390641CA9E718
:1058800000BF0398012809D100200DF80B0008A1E2
:10589000684600F0CFF908B90020039007990398F3
:1058A0000870002089F80000504609B0BDE8F08F6C
:1058B000766F6964000000002DE9F043B5B005463D
:1058C0000F460024002604E000213D488155701C4D
:1058D000C6B20A2EF8DB06E06D1C287818B9012044
:1058E00035B0BDE8F08328782828F5D16D1C61E03B
:1058F00034AA69462846FFF77FFE064635449DF8E0
:10590000D00020B1012827D0FF284CD149E09DF8D4
:10591000000000B333A9684600F027F906460EB12F
:105920000220DDE7204600F04DF825490A31339A80
:105930000A50A1F12400008B0121A1408843204995
:105940001A39088304211E480155601CC4B20A2C70
:1059500001DD0320C4E726E0684600F087F9401C1B
:1059600000F0FF08204600F02DF815490A3100EB41
:1059700001094946684600F06EF911481A38018B52
:105980000120A040014388B20D491A3908830C4810
:1059900000F80480601CC4B20A2C01DD03209FE7DC
:1059A00001E002209CE700BF2878292801D0287850
:1059B00000B900E09CE700BF3C70002090E70000C9
:1059C000CE01002002460020002105E0044B5B5C74
:1059D0000344D8B24B1CD9B29142F7DB70470000A8
:1059E000CE01002010B501210D48FDF774FB012800
:1059F00008D10C48D0F8F0004FF6FF71084409496F
:105A0000C1F8F0000648FDF763FB0649D1F8F01035
:105A100008440449C1F8F0000846D0F8F00010BD71
:105A200000080040B401002010B5044604EBC40097
:105A300000EB04100122C2EB800081B24FF47A70B7
:105A4000FDF7AAFE01200149C87510BDB401002070
:105A500010B50246012000E050430B1EA1F10104E5
:105A6000E1B2F9D110BD000010B501210848FDF7E1
:105A70001DFB4FF6FF710648FDF79BFC0021044813
:105A8000FDF79DFC00200349C1F8F00010BD0000A7
:105A900000080040B401002070B51D48008800F4E3
:105AA0000040002833D01A4805780020194948558D
:105AB000194881681748884704461CB91649C868C0
:105AC000804721E0134800F0DDF80546012D00D0A5
:105AD0002C46CCB1012C06D0022C08D0032C0AD0C5
